{
  "contractName": "HUSD",
  "abi": [
    {
      "inputs": [],
      "stateMutability": "nonpayable",
      "type": "constructor"
    },
    {
      "anonymous": false,
      "inputs": [
        {
          "indexed": true,
          "internalType": "address",
          "name": "owner",
          "type": "address"
        },
        {
          "indexed": true,
          "internalType": "address",
          "name": "spender",
          "type": "address"
        },
        {
          "indexed": false,
          "internalType": "uint256",
          "name": "value",
          "type": "uint256"
        }
      ],
      "name": "Approval",
      "type": "event"
    },
    {
      "anonymous": false,
      "inputs": [
        {
          "indexed": true,
          "internalType": "address",
          "name": "from",
          "type": "address"
        },
        {
          "indexed": true,
          "internalType": "address",
          "name": "to",
          "type": "address"
        },
        {
          "indexed": false,
          "internalType": "uint256",
          "name": "value",
          "type": "uint256"
        }
      ],
      "name": "Transfer",
      "type": "event"
    },
    {
      "inputs": [
        {
          "internalType": "address",
          "name": "owner",
          "type": "address"
        },
        {
          "internalType": "address",
          "name": "spender",
          "type": "address"
        }
      ],
      "name": "allowance",
      "outputs": [
        {
          "internalType": "uint256",
          "name": "",
          "type": "uint256"
        }
      ],
      "stateMutability": "view",
      "type": "function",
      "constant": true
    },
    {
      "inputs": [
        {
          "internalType": "address",
          "name": "spender",
          "type": "address"
        },
        {
          "internalType": "uint256",
          "name": "amount",
          "type": "uint256"
        }
      ],
      "name": "approve",
      "outputs": [
        {
          "internalType": "bool",
          "name": "",
          "type": "bool"
        }
      ],
      "stateMutability": "nonpayable",
      "type": "function"
    },
    {
      "inputs": [
        {
          "internalType": "address",
          "name": "account",
          "type": "address"
        }
      ],
      "name": "balanceOf",
      "outputs": [
        {
          "internalType": "uint256",
          "name": "",
          "type": "uint256"
        }
      ],
      "stateMutability": "view",
      "type": "function",
      "constant": true
    },
    {
      "inputs": [],
      "name": "decimals",
      "outputs": [
        {
          "internalType": "uint8",
          "name": "",
          "type": "uint8"
        }
      ],
      "stateMutability": "view",
      "type": "function",
      "constant": true
    },
    {
      "inputs": [
        {
          "internalType": "address",
          "name": "spender",
          "type": "address"
        },
        {
          "internalType": "uint256",
          "name": "subtractedValue",
          "type": "uint256"
        }
      ],
      "name": "decreaseAllowance",
      "outputs": [
        {
          "internalType": "bool",
          "name": "",
          "type": "bool"
        }
      ],
      "stateMutability": "nonpayable",
      "type": "function"
    },
    {
      "inputs": [],
      "name": "ethCollateralFactor",
      "outputs": [
        {
          "internalType": "uint256",
          "name": "",
          "type": "uint256"
        }
      ],
      "stateMutability": "view",
      "type": "function",
      "constant": true
    },
    {
      "inputs": [
        {
          "internalType": "address",
          "name": "spender",
          "type": "address"
        },
        {
          "internalType": "uint256",
          "name": "addedValue",
          "type": "uint256"
        }
      ],
      "name": "increaseAllowance",
      "outputs": [
        {
          "internalType": "bool",
          "name": "",
          "type": "bool"
        }
      ],
      "stateMutability": "nonpayable",
      "type": "function"
    },
    {
      "inputs": [],
      "name": "name",
      "outputs": [
        {
          "internalType": "string",
          "name": "",
          "type": "string"
        }
      ],
      "stateMutability": "view",
      "type": "function",
      "constant": true
    },
    {
      "inputs": [],
      "name": "symbol",
      "outputs": [
        {
          "internalType": "string",
          "name": "",
          "type": "string"
        }
      ],
      "stateMutability": "view",
      "type": "function",
      "constant": true
    },
    {
      "inputs": [],
      "name": "totalSupply",
      "outputs": [
        {
          "internalType": "uint256",
          "name": "",
          "type": "uint256"
        }
      ],
      "stateMutability": "view",
      "type": "function",
      "constant": true
    },
    {
      "inputs": [
        {
          "internalType": "address",
          "name": "recipient",
          "type": "address"
        },
        {
          "internalType": "uint256",
          "name": "amount",
          "type": "uint256"
        }
      ],
      "name": "transfer",
      "outputs": [
        {
          "internalType": "bool",
          "name": "",
          "type": "bool"
        }
      ],
      "stateMutability": "nonpayable",
      "type": "function"
    },
    {
      "inputs": [
        {
          "internalType": "address",
          "name": "sender",
          "type": "address"
        },
        {
          "internalType": "address",
          "name": "recipient",
          "type": "address"
        },
        {
          "internalType": "uint256",
          "name": "amount",
          "type": "uint256"
        }
      ],
      "name": "transferFrom",
      "outputs": [
        {
          "internalType": "bool",
          "name": "",
          "type": "bool"
        }
      ],
      "stateMutability": "nonpayable",
      "type": "function"
    },
    {
      "inputs": [],
      "name": "issue",
      "outputs": [],
      "stateMutability": "payable",
      "type": "function",
      "payable": true
    },
    {
      "inputs": [],
      "name": "getLatestPrice",
      "outputs": [
        {
          "internalType": "uint256",
          "name": "",
          "type": "uint256"
        }
      ],
      "stateMutability": "view",
      "type": "function",
      "constant": true
    },
    {
      "inputs": [
        {
          "internalType": "uint256",
          "name": "HUSDAmount",
          "type": "uint256"
        }
      ],
      "name": "withdraw",
      "outputs": [
        {
          "internalType": "uint256",
          "name": "",
          "type": "uint256"
        }
      ],
      "stateMutability": "nonpayable",
      "type": "function"
    }
  ],
  "bytecode": "0x6080604052611d4c6006553480156200001757600080fd5b506040518060400160405280601681526020017f4875737361696e55534420537461626c65436f696e20000000000000000000008152506040518060400160405280600481526020017f485553440000000000000000000000000000000000000000000000000000000081525081600390805190602001906200009c92919062000113565b508060049080519060200190620000b592919062000113565b505050738a753747a1fa494ec906ce90e9f37563a8af630e600560006101000a81548173ffffffffffffffffffffffffffffffffffffffff021916908373ffffffffffffffffffffffffffffffffffffffff16021790555062000228565b8280546200012190620001f2565b90600052602060002090601f01602090048101928262000145576000855562000191565b82601f106200016057805160ff191683800117855562000191565b8280016001018555821562000191579182015b828111156200019057825182559160200191906001019062000173565b5b509050620001a09190620001a4565b5090565b5b80821115620001bf576000816000905550600101620001a5565b5090565b7f4e487b7100000000000000000000000000000000000000000000000000000000600052602260045260246000fd5b600060028204905060018216806200020b57607f821691505b60208210811415620002225762000221620001c3565b5b50919050565b611e7880620002386000396000f3fe6080604052600436106100e85760003560e01c806370a082311161008a578063a9059cbb11610059578063a9059cbb14610332578063d383f6461461036f578063dd62ed3e14610379578063e29b55d9146103b6576100e8565b806370a08231146102625780638e15f4731461029f57806395d89b41146102ca578063a457c2d7146102f5576100e8565b806323b872dd116100c657806323b872dd146101805780632e1a7d4d146101bd578063313ce567146101fa5780633950935114610225576100e8565b806306fdde03146100ed578063095ea7b31461011857806318160ddd14610155575b600080fd5b3480156100f957600080fd5b506101026103e1565b60405161010f9190611359565b60405180910390f35b34801561012457600080fd5b5061013f600480360381019061013a9190611414565b610473565b60405161014c919061146f565b60405180910390f35b34801561016157600080fd5b5061016a610491565b6040516101779190611499565b60405180910390f35b34801561018c57600080fd5b506101a760048036038101906101a291906114b4565b61049b565b6040516101b4919061146f565b60405180910390f35b3480156101c957600080fd5b506101e460048036038101906101df9190611507565b610593565b6040516101f19190611499565b60405180910390f35b34801561020657600080fd5b5061020f6106b6565b60405161021c9190611550565b60405180910390f35b34801561023157600080fd5b5061024c60048036038101906102479190611414565b6106bf565b604051610259919061146f565b60405180910390f35b34801561026e57600080fd5b506102896004803603810190610284919061156b565b61076b565b6040516102969190611499565b60405180910390f35b3480156102ab57600080fd5b506102b46107b3565b6040516102c19190611499565b60405180910390f35b3480156102d657600080fd5b506102df610878565b6040516102ec9190611359565b60405180910390f35b34801561030157600080fd5b5061031c60048036038101906103179190611414565b61090a565b604051610329919061146f565b60405180910390f35b34801561033e57600080fd5b5061035960048036038101906103549190611414565b6109f5565b604051610366919061146f565b60405180910390f35b610377610a13565b005b34801561038557600080fd5b506103a0600480360381019061039b9190611598565b610a72565b6040516103ad9190611499565b60405180910390f35b3480156103c257600080fd5b506103cb610af9565b6040516103d89190611499565b60405180910390f35b6060600380546103f090611607565b80601f016020809104026020016040519081016040528092919081815260200182805461041c90611607565b80156104695780601f1061043e57610100808354040283529160200191610469565b820191906000526020600020905b81548152906001019060200180831161044c57829003601f168201915b5050505050905090565b6000610487610480610aff565b8484610b07565b6001905092915050565b6000600254905090565b60006104a8848484610cd2565b6000600160008673ffffffffffffffffffffffffffffffffffffffff1673ffffffffffffffffffffffffffffffffffffffff16815260200190815260200160002060006104f3610aff565b73ffffffffffffffffffffffffffffffffffffffff1673ffffffffffffffffffffffffffffffffffffffff16815260200190815260200160002054905082811015610573576040517f08c379a000000000000000000000000000000000000000000000000000000000815260040161056a906116ab565b60405180910390fd5b6105878561057f610aff565b858403610b07565b60019150509392505050565b600061059e3361076b565b8211156105aa57600080fd5b60006105e06105b76107b3565b6105d2670de0b6b3a764000086610f5390919063ffffffff16565b610f6990919063ffffffff16565b905080471161064b5761064861060e670de0b6b3a7640000610600610491565b610f5390919063ffffffff16565b61063a6106196107b3565b61062c4786610f5390919063ffffffff16565b610f5390919063ffffffff16565b610f6990919063ffffffff16565b90505b6106693361066461271086610f5390919063ffffffff16565b610f7f565b3373ffffffffffffffffffffffffffffffffffffffff166108fc829081150290604051600060405180830381858888f193505050501580156106af573d6000803e3d6000fd5b5050919050565b60006004905090565b60006107616106cc610aff565b8484600160006106da610aff565b73ffffffffffffffffffffffffffffffffffffffff1673ffffffffffffffffffffffffffffffffffffffff16815260200190815260200160002060008873ffffffffffffffffffffffffffffffffffffffff1673ffffffffffffffffffffffffffffffffffffffff1681526020019081526020016000205461075c91906116fa565b610b07565b6001905092915050565b60008060008373ffffffffffffffffffffffffffffffffffffffff1673ffffffffffffffffffffffffffffffffffffffff168152602001908152602001600020549050919050565b600080600080600080600560009054906101000a900473ffffffffffffffffffffffffffffffffffffffff1673ffffffffffffffffffffffffffffffffffffffff1663feaf968c6040518163ffffffff1660e01b815260040160a060405180830381865afa158015610829573d6000803e3d6000fd5b505050506040513d601f19601f8201168201806040525081019061084d91906117dd565b9450945094509450945061086e6305f5e10085610f6990919063ffffffff16565b9550505050505090565b60606004805461088790611607565b80601f01602080910402602001604051908101604052809291908181526020018280546108b390611607565b80156109005780601f106108d557610100808354040283529160200191610900565b820191906000526020600020905b8154815290600101906020018083116108e357829003601f168201915b5050505050905090565b60008060016000610919610aff565b73ffffffffffffffffffffffffffffffffffffffff1673ffffffffffffffffffffffffffffffffffffffff16815260200190815260200160002060008573ffffffffffffffffffffffffffffffffffffffff1673ffffffffffffffffffffffffffffffffffffffff168152602001908152602001600020549050828110156109d6576040517f08c379a00000000000000000000000000000000000000000000000000000000081526004016109cd906118ca565b60405180910390fd5b6109ea6109e1610aff565b85858403610b07565b600191505092915050565b6000610a09610a02610aff565b8484610cd2565b6001905092915050565b6000610a2a34600654610f5390919063ffffffff16565b90506000610a62670de0b6b3a7640000610a54610a456107b3565b85610f5390919063ffffffff16565b610f6990919063ffffffff16565b9050610a6e3382611156565b5050565b6000600160008473ffffffffffffffffffffffffffffffffffffffff1673ffffffffffffffffffffffffffffffffffffffff16815260200190815260200160002060008373ffffffffffffffffffffffffffffffffffffffff1673ffffffffffffffffffffffffffffffffffffffff16815260200190815260200160002054905092915050565b60065481565b600033905090565b600073ffffffffffffffffffffffffffffffffffffffff168373ffffffffffffffffffffffffffffffffffffffff161415610b77576040517f08c379a0000000000000000000000000000000000000000000000000000000008152600401610b6e9061195c565b60405180910390fd5b600073ffffffffffffffffffffffffffffffffffffffff168273ffffffffffffffffffffffffffffffffffffffff161415610be7576040517f08c379a0000000000000000000000000000000000000000000000000000000008152600401610bde906119ee565b60405180910390fd5b80600160008573ffffffffffffffffffffffffffffffffffffffff1673ffffffffffffffffffffffffffffffffffffffff16815260200190815260200160002060008473ffffffffffffffffffffffffffffffffffffffff1673ffffffffffffffffffffffffffffffffffffffff168152602001908152602001600020819055508173ffffffffffffffffffffffffffffffffffffffff168373ffffffffffffffffffffffffffffffffffffffff167f8c5be1e5ebec7d5bd14f71427d1e84f3dd0314c0f7b2291e5b200ac8c7c3b92583604051610cc59190611499565b60405180910390a3505050565b600073ffffffffffffffffffffffffffffffffffffffff168373ffffffffffffffffffffffffffffffffffffffff161415610d42576040517f08c379a0000000000000000000000000000000000000000000000000000000008152600401610d3990611a80565b60405180910390fd5b600073ffffffffffffffffffffffffffffffffffffffff168273ffffffffffffffffffffffffffffffffffffffff161415610db2576040517f08c379a0000000000000000000000000000000000000000000000000000000008152600401610da990611b12565b60405180910390fd5b610dbd8383836112b6565b60008060008573ffffffffffffffffffffffffffffffffffffffff1673ffffffffffffffffffffffffffffffffffffffff16815260200190815260200160002054905081811015610e43576040517f08c379a0000000000000000000000000000000000000000000000000000000008152600401610e3a90611ba4565b60405180910390fd5b8181036000808673ffffffffffffffffffffffffffffffffffffffff1673ffffffffffffffffffffffffffffffffffffffff16815260200190815260200160002081905550816000808573ffffffffffffffffffffffffffffffffffffffff1673ffffffffffffffffffffffffffffffffffffffff1681526020019081526020016000206000828254610ed691906116fa565b925050819055508273ffffffffffffffffffffffffffffffffffffffff168473ffffffffffffffffffffffffffffffffffffffff167fddf252ad1be2c89b69c2b068fc378daa952ba7f163c4a11628f55a4df523b3ef84604051610f3a9190611499565b60405180910390a3610f4d8484846112bb565b50505050565b60008183610f619190611bc4565b905092915050565b60008183610f779190611c4d565b905092915050565b600073ffffffffffffffffffffffffffffffffffffffff168273ffffffffffffffffffffffffffffffffffffffff161415610fef576040517f08c379a0000000000000000000000000000000000000000000000000000000008152600401610fe690611cf0565b60405180910390fd5b610ffb826000836112b6565b60008060008473ffffffffffffffffffffffffffffffffffffffff1673ffffffffffffffffffffffffffffffffffffffff16815260200190815260200160002054905081811015611081576040517f08c379a000000000000000000000000000000000000000000000000000000000815260040161107890611d82565b60405180910390fd5b8181036000808573ffffffffffffffffffffffffffffffffffffffff1673ffffffffffffffffffffffffffffffffffffffff1681526020019081526020016000208190555081600260008282546110d89190611da2565b92505081905550600073ffffffffffffffffffffffffffffffffffffffff168373ffffffffffffffffffffffffffffffffffffffff167fddf252ad1be2c89b69c2b068fc378daa952ba7f163c4a11628f55a4df523b3ef8460405161113d9190611499565b60405180910390a3611151836000846112bb565b505050565b600073ffffffffffffffffffffffffffffffffffffffff168273ffffffffffffffffffffffffffffffffffffffff1614156111c6576040517f08c379a00000000000000000000000000000000000000000000000000000000081526004016111bd90611e22565b60405180910390fd5b6111d2600083836112b6565b80600260008282546111e491906116fa565b92505081905550806000808473ffffffffffffffffffffffffffffffffffffffff1673ffffffffffffffffffffffffffffffffffffffff168152602001908152602001600020600082825461123991906116fa565b925050819055508173ffffffffffffffffffffffffffffffffffffffff16600073ffffffffffffffffffffffffffffffffffffffff167fddf252ad1be2c89b69c2b068fc378daa952ba7f163c4a11628f55a4df523b3ef8360405161129e9190611499565b60405180910390a36112b2600083836112bb565b5050565b505050565b505050565b600081519050919050565b600082825260208201905092915050565b60005b838110156112fa5780820151818401526020810190506112df565b83811115611309576000848401525b50505050565b6000601f19601f8301169050919050565b600061132b826112c0565b61133581856112cb565b93506113458185602086016112dc565b61134e8161130f565b840191505092915050565b600060208201905081810360008301526113738184611320565b905092915050565b600080fd5b600073ffffffffffffffffffffffffffffffffffffffff82169050919050565b60006113ab82611380565b9050919050565b6113bb816113a0565b81146113c657600080fd5b50565b6000813590506113d8816113b2565b92915050565b6000819050919050565b6113f1816113de565b81146113fc57600080fd5b50565b60008135905061140e816113e8565b92915050565b6000806040838503121561142b5761142a61137b565b5b6000611439858286016113c9565b925050602061144a858286016113ff565b9150509250929050565b60008115159050919050565b61146981611454565b82525050565b60006020820190506114846000830184611460565b92915050565b611493816113de565b82525050565b60006020820190506114ae600083018461148a565b92915050565b6000806000606084860312156114cd576114cc61137b565b5b60006114db868287016113c9565b93505060206114ec868287016113c9565b92505060406114fd868287016113ff565b9150509250925092565b60006020828403121561151d5761151c61137b565b5b600061152b848285016113ff565b91505092915050565b600060ff82169050919050565b61154a81611534565b82525050565b60006020820190506115656000830184611541565b92915050565b6000602082840312156115815761158061137b565b5b600061158f848285016113c9565b91505092915050565b600080604083850312156115af576115ae61137b565b5b60006115bd858286016113c9565b92505060206115ce858286016113c9565b9150509250929050565b7f4e487b7100000000000000000000000000000000000000000000000000000000600052602260045260246000fd5b6000600282049050600182168061161f57607f821691505b60208210811415611633576116326115d8565b5b50919050565b7f45524332303a207472616e7366657220616d6f756e742065786365656473206160008201527f6c6c6f77616e6365000000000000000000000000000000000000000000000000602082015250565b60006116956028836112cb565b91506116a082611639565b604082019050919050565b600060208201905081810360008301526116c481611688565b9050919050565b7f4e487b7100000000000000000000000000000000000000000000000000000000600052601160045260246000fd5b6000611705826113de565b9150611710836113de565b9250827fffffffffffffffffffffffffffffffffffffffffffffffffffffffffffffffff03821115611745576117446116cb565b5b828201905092915050565b600069ffffffffffffffffffff82169050919050565b61176f81611750565b811461177a57600080fd5b50565b60008151905061178c81611766565b92915050565b6000819050919050565b6117a581611792565b81146117b057600080fd5b50565b6000815190506117c28161179c565b92915050565b6000815190506117d7816113e8565b92915050565b600080600080600060a086880312156117f9576117f861137b565b5b60006118078882890161177d565b9550506020611818888289016117b3565b9450506040611829888289016117c8565b935050606061183a888289016117c8565b925050608061184b8882890161177d565b9150509295509295909350565b7f45524332303a2064656372656173656420616c6c6f77616e63652062656c6f7760008201527f207a65726f000000000000000000000000000000000000000000000000000000602082015250565b60006118b46025836112cb565b91506118bf82611858565b604082019050919050565b600060208201905081810360008301526118e3816118a7565b9050919050565b7f45524332303a20617070726f76652066726f6d20746865207a65726f2061646460008201527f7265737300000000000000000000000000000000000000000000000000000000602082015250565b60006119466024836112cb565b9150611951826118ea565b604082019050919050565b6000602082019050818103600083015261197581611939565b9050919050565b7f45524332303a20617070726f766520746f20746865207a65726f20616464726560008201527f7373000000000000000000000000000000000000000000000000000000000000602082015250565b60006119d86022836112cb565b91506119e38261197c565b604082019050919050565b60006020820190508181036000830152611a07816119cb565b9050919050565b7f45524332303a207472616e736665722066726f6d20746865207a65726f20616460008201527f6472657373000000000000000000000000000000000000000000000000000000602082015250565b6000611a6a6025836112cb565b9150611a7582611a0e565b604082019050919050565b60006020820190508181036000830152611a9981611a5d565b9050919050565b7f45524332303a207472616e7366657220746f20746865207a65726f206164647260008201527f6573730000000000000000000000000000000000000000000000000000000000602082015250565b6000611afc6023836112cb565b9150611b0782611aa0565b604082019050919050565b60006020820190508181036000830152611b2b81611aef565b9050919050565b7f45524332303a207472616e7366657220616d6f756e742065786365656473206260008201527f616c616e63650000000000000000000000000000000000000000000000000000602082015250565b6000611b8e6026836112cb565b9150611b9982611b32565b604082019050919050565b60006020820190508181036000830152611bbd81611b81565b9050919050565b6000611bcf826113de565b9150611bda836113de565b9250817fffffffffffffffffffffffffffffffffffffffffffffffffffffffffffffffff0483118215151615611c1357611c126116cb565b5b828202905092915050565b7f4e487b7100000000000000000000000000000000000000000000000000000000600052601260045260246000fd5b6000611c58826113de565b9150611c63836113de565b925082611c7357611c72611c1e565b5b828204905092915050565b7f45524332303a206275726e2066726f6d20746865207a65726f2061646472657360008201527f7300000000000000000000000000000000000000000000000000000000000000602082015250565b6000611cda6021836112cb565b9150611ce582611c7e565b604082019050919050565b60006020820190508181036000830152611d0981611ccd565b9050919050565b7f45524332303a206275726e20616d6f756e7420657863656564732062616c616e60008201527f6365000000000000000000000000000000000000000000000000000000000000602082015250565b6000611d6c6022836112cb565b9150611d7782611d10565b604082019050919050565b60006020820190508181036000830152611d9b81611d5f565b9050919050565b6000611dad826113de565b9150611db8836113de565b925082821015611dcb57611dca6116cb565b5b828203905092915050565b7f45524332303a206d696e7420746f20746865207a65726f206164647265737300600082015250565b6000611e0c601f836112cb565b9150611e1782611dd6565b602082019050919050565b60006020820190508181036000830152611e3b81611dff565b905091905056fea264697066735822122017a65214c1eaf791bbffcfdc1040ea40dc59a213be0cf5230139022abc26117064736f6c634300080a0033",
  "immutableReferences": {},
  "source": "// SPDX-License-Identifier: MIT\npragma solidity ^0.8.0;\nimport \"@openzeppelin/contracts/token/ERC20/ERC20.sol\";\nimport \"@chainlink/contracts/src/v0.8/interfaces/AggregatorV3Interface.sol\";\nimport \"@openzeppelin/contracts/utils/math/SafeMath.sol\";\n\n\ncontract HUSD is ERC20{\n\n\tusing SafeMath for uint;\n\n\tAggregatorV3Interface internal priceFeed;\n\tuint public ethCollateralFactor = 7500;\n\n\n\n\tconstructor() ERC20(\"HussainUSD StableCoin \", \"HUSD\"){\n\t\tpriceFeed = AggregatorV3Interface(0x8A753747A1Fa494EC906cE90E9f37563A8AF630e);\n\t}\n\n\tfunction issue() public payable{\n\t\tuint collateralValue = ethCollateralFactor.mul(msg.value);\n\t\tuint amount = (collateralValue.mul(getLatestPrice())).div(1 ether);\n\t\t_mint(msg.sender, amount);\n\t}\n\n\t/**\n     * Returns the latest price\n     */\n    function getLatestPrice() public view returns (uint) {\n        (\n            uint80 roundID, \n            int price,\n            uint startedAt,\n            uint timeStamp,\n            uint80 answeredInRound\n        ) = priceFeed.latestRoundData();\n        return uint(price).div(10**8);\n    }\n\n\n    function withdraw(uint HUSDAmount) public returns (uint){\n\n\t    require(HUSDAmount <= balanceOf(msg.sender));\n\t    uint ethAmount = (HUSDAmount.mul(1 ether)).div(getLatestPrice());\n\n\t    // If we don't have enough Ether in the contract to pay out the full amount\n\t    // pay an amount proportinal to what we have left.\n\t    // this way user's net worth will never drop at a rate quicker than\n\t    // the collateral itself.\n\n\t    // For Example:\n\t    // A user deposits 1 Ether when the price of Ether is $300\n\t    // the price then falls to $150.\n\t    // If we have enough Ether in the contract we cover the losses\n\t    // and pay them back 1.5 ether (the same amount in USD).\n\t    // if we don't have enough money to pay them back we pay out\n\t    // proportonailly to what we have left. In this case they'd\n\t    // get back 0.75 Ether.\n\n\t    if(address(this).balance <= ethAmount) {\n\t      ethAmount = \n\t      (ethAmount.mul(address(this).balance).mul(getLatestPrice())).div(totalSupply().mul(1 ether));\n\t    }\n\n\t    _burn(msg.sender, HUSDAmount.mul(10**4));\n\t    payable(msg.sender).transfer(ethAmount);\n\t}\n}",
  "sourcePath": "/home/hussain/projects/myDefi-platform/contracts/StableCoins/HUSD.sol",
  "compiler": {
    "name": "solc",
    "version": "0.8.10+commit.fc410830.Emscripten.clang"
  },
  "schemaVersion": "3.4.3",
  "updatedAt": "2022-02-13T10:11:33.141Z",
  "networkType": "ethereum",
  "devdoc": {
    "kind": "dev",
    "methods": {
      "allowance(address,address)": {
        "details": "See {IERC20-allowance}."
      },
      "approve(address,uint256)": {
        "details": "See {IERC20-approve}. Requirements: - `spender` cannot be the zero address."
      },
      "balanceOf(address)": {
        "details": "See {IERC20-balanceOf}."
      },
      "decimals()": {
        "details": "Returns the number of decimals used to get its user representation. For example, if `decimals` equals `2`, a balance of `505` tokens should be displayed to a user as `5.05` (`505 / 10 ** 2`). Tokens usually opt for a value of 18, imitating the relationship between Ether and Wei. This is the value {ERC20} uses, unless this function is overridden; NOTE: This information is only used for _display_ purposes: it in no way affects any of the arithmetic of the contract, including {IERC20-balanceOf} and {IERC20-transfer}."
      },
      "decreaseAllowance(address,uint256)": {
        "details": "Atomically decreases the allowance granted to `spender` by the caller. This is an alternative to {approve} that can be used as a mitigation for problems described in {IERC20-approve}. Emits an {Approval} event indicating the updated allowance. Requirements: - `spender` cannot be the zero address. - `spender` must have allowance for the caller of at least `subtractedValue`."
      },
      "increaseAllowance(address,uint256)": {
        "details": "Atomically increases the allowance granted to `spender` by the caller. This is an alternative to {approve} that can be used as a mitigation for problems described in {IERC20-approve}. Emits an {Approval} event indicating the updated allowance. Requirements: - `spender` cannot be the zero address."
      },
      "name()": {
        "details": "Returns the name of the token."
      },
      "symbol()": {
        "details": "Returns the symbol of the token, usually a shorter version of the name."
      },
      "totalSupply()": {
        "details": "See {IERC20-totalSupply}."
      },
      "transfer(address,uint256)": {
        "details": "See {IERC20-transfer}. Requirements: - `recipient` cannot be the zero address. - the caller must have a balance of at least `amount`."
      },
      "transferFrom(address,address,uint256)": {
        "details": "See {IERC20-transferFrom}. Emits an {Approval} event indicating the updated allowance. This is not required by the EIP. See the note at the beginning of {ERC20}. Requirements: - `sender` and `recipient` cannot be the zero address. - `sender` must have a balance of at least `amount`. - the caller must have allowance for ``sender``'s tokens of at least `amount`."
      }
    },
    "version": 1
  },
  "userdoc": {
    "kind": "user",
    "methods": {
      "getLatestPrice()": {
        "notice": "Returns the latest price"
      }
    },
    "version": 1
  }
}