{
  "contractName": "HUSD",
  "abi": [
    {
      "inputs": [],
      "stateMutability": "nonpayable",
      "type": "constructor"
    },
    {
      "anonymous": false,
      "inputs": [
        {
          "indexed": true,
          "internalType": "address",
          "name": "owner",
          "type": "address"
        },
        {
          "indexed": true,
          "internalType": "address",
          "name": "spender",
          "type": "address"
        },
        {
          "indexed": false,
          "internalType": "uint256",
          "name": "value",
          "type": "uint256"
        }
      ],
      "name": "Approval",
      "type": "event"
    },
    {
      "anonymous": false,
      "inputs": [
        {
          "indexed": true,
          "internalType": "address",
          "name": "from",
          "type": "address"
        },
        {
          "indexed": true,
          "internalType": "address",
          "name": "to",
          "type": "address"
        },
        {
          "indexed": false,
          "internalType": "uint256",
          "name": "value",
          "type": "uint256"
        }
      ],
      "name": "Transfer",
      "type": "event"
    },
    {
      "inputs": [
        {
          "internalType": "address",
          "name": "owner",
          "type": "address"
        },
        {
          "internalType": "address",
          "name": "spender",
          "type": "address"
        }
      ],
      "name": "allowance",
      "outputs": [
        {
          "internalType": "uint256",
          "name": "",
          "type": "uint256"
        }
      ],
      "stateMutability": "view",
      "type": "function"
    },
    {
      "inputs": [
        {
          "internalType": "address",
          "name": "spender",
          "type": "address"
        },
        {
          "internalType": "uint256",
          "name": "amount",
          "type": "uint256"
        }
      ],
      "name": "approve",
      "outputs": [
        {
          "internalType": "bool",
          "name": "",
          "type": "bool"
        }
      ],
      "stateMutability": "nonpayable",
      "type": "function"
    },
    {
      "inputs": [
        {
          "internalType": "address",
          "name": "account",
          "type": "address"
        }
      ],
      "name": "balanceOf",
      "outputs": [
        {
          "internalType": "uint256",
          "name": "",
          "type": "uint256"
        }
      ],
      "stateMutability": "view",
      "type": "function"
    },
    {
      "inputs": [],
      "name": "decimals",
      "outputs": [
        {
          "internalType": "uint8",
          "name": "",
          "type": "uint8"
        }
      ],
      "stateMutability": "view",
      "type": "function"
    },
    {
      "inputs": [
        {
          "internalType": "address",
          "name": "spender",
          "type": "address"
        },
        {
          "internalType": "uint256",
          "name": "subtractedValue",
          "type": "uint256"
        }
      ],
      "name": "decreaseAllowance",
      "outputs": [
        {
          "internalType": "bool",
          "name": "",
          "type": "bool"
        }
      ],
      "stateMutability": "nonpayable",
      "type": "function"
    },
    {
      "inputs": [],
      "name": "ethCollateralFactor",
      "outputs": [
        {
          "internalType": "uint256",
          "name": "",
          "type": "uint256"
        }
      ],
      "stateMutability": "view",
      "type": "function"
    },
    {
      "inputs": [
        {
          "internalType": "address",
          "name": "spender",
          "type": "address"
        },
        {
          "internalType": "uint256",
          "name": "addedValue",
          "type": "uint256"
        }
      ],
      "name": "increaseAllowance",
      "outputs": [
        {
          "internalType": "bool",
          "name": "",
          "type": "bool"
        }
      ],
      "stateMutability": "nonpayable",
      "type": "function"
    },
    {
      "inputs": [],
      "name": "name",
      "outputs": [
        {
          "internalType": "string",
          "name": "",
          "type": "string"
        }
      ],
      "stateMutability": "view",
      "type": "function"
    },
    {
      "inputs": [],
      "name": "symbol",
      "outputs": [
        {
          "internalType": "string",
          "name": "",
          "type": "string"
        }
      ],
      "stateMutability": "view",
      "type": "function"
    },
    {
      "inputs": [],
      "name": "totalSupply",
      "outputs": [
        {
          "internalType": "uint256",
          "name": "",
          "type": "uint256"
        }
      ],
      "stateMutability": "view",
      "type": "function"
    },
    {
      "inputs": [
        {
          "internalType": "address",
          "name": "recipient",
          "type": "address"
        },
        {
          "internalType": "uint256",
          "name": "amount",
          "type": "uint256"
        }
      ],
      "name": "transfer",
      "outputs": [
        {
          "internalType": "bool",
          "name": "",
          "type": "bool"
        }
      ],
      "stateMutability": "nonpayable",
      "type": "function"
    },
    {
      "inputs": [
        {
          "internalType": "address",
          "name": "sender",
          "type": "address"
        },
        {
          "internalType": "address",
          "name": "recipient",
          "type": "address"
        },
        {
          "internalType": "uint256",
          "name": "amount",
          "type": "uint256"
        }
      ],
      "name": "transferFrom",
      "outputs": [
        {
          "internalType": "bool",
          "name": "",
          "type": "bool"
        }
      ],
      "stateMutability": "nonpayable",
      "type": "function"
    },
    {
      "inputs": [],
      "name": "issue",
      "outputs": [],
      "stateMutability": "payable",
      "type": "function"
    },
    {
      "inputs": [],
      "name": "getLatestPrice",
      "outputs": [
        {
          "internalType": "uint256",
          "name": "",
          "type": "uint256"
        }
      ],
      "stateMutability": "view",
      "type": "function"
    },
    {
      "inputs": [
        {
          "internalType": "uint256",
          "name": "HUSDAmount",
          "type": "uint256"
        }
      ],
      "name": "withdraw",
      "outputs": [
        {
          "internalType": "uint256",
          "name": "",
          "type": "uint256"
        }
      ],
      "stateMutability": "nonpayable",
      "type": "function"
    }
  ],
  "bytecode": "0x6080604052611d4c6006553480156200001757600080fd5b506040518060400160405280601681526020017f4875737361696e55534420537461626c65436f696e20000000000000000000008152506040518060400160405280600481526020017f485553440000000000000000000000000000000000000000000000000000000081525081600390805190602001906200009c92919062000113565b508060049080519060200190620000b592919062000113565b505050738a753747a1fa494ec906ce90e9f37563a8af630e600560006101000a81548173ffffffffffffffffffffffffffffffffffffffff021916908373ffffffffffffffffffffffffffffffffffffffff16021790555062000228565b8280546200012190620001f2565b90600052602060002090601f01602090048101928262000145576000855562000191565b82601f106200016057805160ff191683800117855562000191565b8280016001018555821562000191579182015b828111156200019057825182559160200191906001019062000173565b5b509050620001a09190620001a4565b5090565b5b80821115620001bf576000816000905550600101620001a5565b5090565b7f4e487b7100000000000000000000000000000000000000000000000000000000600052602260045260246000fd5b600060028204905060018216806200020b57607f821691505b60208210811415620002225762000221620001c3565b5b50919050565b611e6980620002386000396000f3fe6080604052600436106100e85760003560e01c806370a082311161008a578063a9059cbb11610059578063a9059cbb14610332578063d383f6461461036f578063dd62ed3e14610379578063e29b55d9146103b6576100e8565b806370a08231146102625780638e15f4731461029f57806395d89b41146102ca578063a457c2d7146102f5576100e8565b806323b872dd116100c657806323b872dd146101805780632e1a7d4d146101bd578063313ce567146101fa5780633950935114610225576100e8565b806306fdde03146100ed578063095ea7b31461011857806318160ddd14610155575b600080fd5b3480156100f957600080fd5b506101026103e1565b60405161010f91906112e0565b60405180910390f35b34801561012457600080fd5b5061013f600480360381019061013a919061139b565b610473565b60405161014c91906113f6565b60405180910390f35b34801561016157600080fd5b5061016a610491565b6040516101779190611420565b60405180910390f35b34801561018c57600080fd5b506101a760048036038101906101a2919061143b565b61049b565b6040516101b491906113f6565b60405180910390f35b3480156101c957600080fd5b506101e460048036038101906101df919061148e565b610593565b6040516101f19190611420565b60405180910390f35b34801561020657600080fd5b5061020f610685565b60405161021c91906114d7565b60405180910390f35b34801561023157600080fd5b5061024c6004803603810190610247919061139b565b61068e565b60405161025991906113f6565b60405180910390f35b34801561026e57600080fd5b50610289600480360381019061028491906114f2565b61073a565b6040516102969190611420565b60405180910390f35b3480156102ab57600080fd5b506102b4610782565b6040516102c19190611420565b60405180910390f35b3480156102d657600080fd5b506102df610840565b6040516102ec91906112e0565b60405180910390f35b34801561030157600080fd5b5061031c6004803603810190610317919061139b565b6108d2565b60405161032991906113f6565b60405180910390f35b34801561033e57600080fd5b506103596004803603810190610354919061139b565b6109bd565b60405161036691906113f6565b60405180910390f35b6103776109db565b005b34801561038557600080fd5b506103a0600480360381019061039b919061151f565b610a25565b6040516103ad9190611420565b60405180910390f35b3480156103c257600080fd5b506103cb610aac565b6040516103d89190611420565b60405180910390f35b6060600380546103f09061158e565b80601f016020809104026020016040519081016040528092919081815260200182805461041c9061158e565b80156104695780601f1061043e57610100808354040283529160200191610469565b820191906000526020600020905b81548152906001019060200180831161044c57829003601f168201915b5050505050905090565b6000610487610480610ab2565b8484610aba565b6001905092915050565b6000600254905090565b60006104a8848484610c85565b6000600160008673ffffffffffffffffffffffffffffffffffffffff1673ffffffffffffffffffffffffffffffffffffffff16815260200190815260200160002060006104f3610ab2565b73ffffffffffffffffffffffffffffffffffffffff1673ffffffffffffffffffffffffffffffffffffffff16815260200190815260200160002054905082811015610573576040517f08c379a000000000000000000000000000000000000000000000000000000000815260040161056a90611632565b60405180910390fd5b6105878561057f610ab2565b858403610aba565b60019150509392505050565b600061059e3361073a565b8211156105aa57600080fd5b60006105b4610782565b670de0b6b3a7640000846105c89190611681565b6105d2919061170a565b905080471161062157670de0b6b3a76400006105ec610491565b6105f69190611681565b6105fe610782565b478361060a9190611681565b6106149190611681565b61061e919061170a565b90505b61063833612710856106339190611681565b610f06565b3373ffffffffffffffffffffffffffffffffffffffff166108fc829081150290604051600060405180830381858888f1935050505015801561067e573d6000803e3d6000fd5b5050919050565b60006004905090565b600061073061069b610ab2565b8484600160006106a9610ab2565b73ffffffffffffffffffffffffffffffffffffffff1673ffffffffffffffffffffffffffffffffffffffff16815260200190815260200160002060008873ffffffffffffffffffffffffffffffffffffffff1673ffffffffffffffffffffffffffffffffffffffff1681526020019081526020016000205461072b919061173b565b610aba565b6001905092915050565b60008060008373ffffffffffffffffffffffffffffffffffffffff1673ffffffffffffffffffffffffffffffffffffffff168152602001908152602001600020549050919050565b600080600080600080600560009054906101000a900473ffffffffffffffffffffffffffffffffffffffff1673ffffffffffffffffffffffffffffffffffffffff1663feaf968c6040518163ffffffff1660e01b815260040160a060405180830381865afa1580156107f8573d6000803e3d6000fd5b505050506040513d601f19601f8201168201806040525081019061081c919061181e565b945094509450945094506305f5e100846108369190611899565b9550505050505090565b60606004805461084f9061158e565b80601f016020809104026020016040519081016040528092919081815260200182805461087b9061158e565b80156108c85780601f1061089d576101008083540402835291602001916108c8565b820191906000526020600020905b8154815290600101906020018083116108ab57829003601f168201915b5050505050905090565b600080600160006108e1610ab2565b73ffffffffffffffffffffffffffffffffffffffff1673ffffffffffffffffffffffffffffffffffffffff16815260200190815260200160002060008573ffffffffffffffffffffffffffffffffffffffff1673ffffffffffffffffffffffffffffffffffffffff1681526020019081526020016000205490508281101561099e576040517f08c379a000000000000000000000000000000000000000000000000000000000815260040161099590611975565b60405180910390fd5b6109b26109a9610ab2565b85858403610aba565b600191505092915050565b60006109d16109ca610ab2565b8484610c85565b6001905092915050565b6000600654346109eb9190611681565b90506000670de0b6b3a7640000610a00610782565b83610a0b9190611681565b610a15919061170a565b9050610a2133826110dd565b5050565b6000600160008473ffffffffffffffffffffffffffffffffffffffff1673ffffffffffffffffffffffffffffffffffffffff16815260200190815260200160002060008373ffffffffffffffffffffffffffffffffffffffff1673ffffffffffffffffffffffffffffffffffffffff16815260200190815260200160002054905092915050565b60065481565b600033905090565b600073ffffffffffffffffffffffffffffffffffffffff168373ffffffffffffffffffffffffffffffffffffffff161415610b2a576040517f08c379a0000000000000000000000000000000000000000000000000000000008152600401610b2190611a07565b60405180910390fd5b600073ffffffffffffffffffffffffffffffffffffffff168273ffffffffffffffffffffffffffffffffffffffff161415610b9a576040517f08c379a0000000000000000000000000000000000000000000000000000000008152600401610b9190611a99565b60405180910390fd5b80600160008573ffffffffffffffffffffffffffffffffffffffff1673ffffffffffffffffffffffffffffffffffffffff16815260200190815260200160002060008473ffffffffffffffffffffffffffffffffffffffff1673ffffffffffffffffffffffffffffffffffffffff168152602001908152602001600020819055508173ffffffffffffffffffffffffffffffffffffffff168373ffffffffffffffffffffffffffffffffffffffff167f8c5be1e5ebec7d5bd14f71427d1e84f3dd0314c0f7b2291e5b200ac8c7c3b92583604051610c789190611420565b60405180910390a3505050565b600073ffffffffffffffffffffffffffffffffffffffff168373ffffffffffffffffffffffffffffffffffffffff161415610cf5576040517f08c379a0000000000000000000000000000000000000000000000000000000008152600401610cec90611b2b565b60405180910390fd5b600073ffffffffffffffffffffffffffffffffffffffff168273ffffffffffffffffffffffffffffffffffffffff161415610d65576040517f08c379a0000000000000000000000000000000000000000000000000000000008152600401610d5c90611bbd565b60405180910390fd5b610d7083838361123d565b60008060008573ffffffffffffffffffffffffffffffffffffffff1673ffffffffffffffffffffffffffffffffffffffff16815260200190815260200160002054905081811015610df6576040517f08c379a0000000000000000000000000000000000000000000000000000000008152600401610ded90611c4f565b60405180910390fd5b8181036000808673ffffffffffffffffffffffffffffffffffffffff1673ffffffffffffffffffffffffffffffffffffffff16815260200190815260200160002081905550816000808573ffffffffffffffffffffffffffffffffffffffff1673ffffffffffffffffffffffffffffffffffffffff1681526020019081526020016000206000828254610e89919061173b565b925050819055508273ffffffffffffffffffffffffffffffffffffffff168473ffffffffffffffffffffffffffffffffffffffff167fddf252ad1be2c89b69c2b068fc378daa952ba7f163c4a11628f55a4df523b3ef84604051610eed9190611420565b60405180910390a3610f00848484611242565b50505050565b600073ffffffffffffffffffffffffffffffffffffffff168273ffffffffffffffffffffffffffffffffffffffff161415610f76576040517f08c379a0000000000000000000000000000000000000000000000000000000008152600401610f6d90611ce1565b60405180910390fd5b610f828260008361123d565b60008060008473ffffffffffffffffffffffffffffffffffffffff1673ffffffffffffffffffffffffffffffffffffffff16815260200190815260200160002054905081811015611008576040517f08c379a0000000000000000000000000000000000000000000000000000000008152600401610fff90611d73565b60405180910390fd5b8181036000808573ffffffffffffffffffffffffffffffffffffffff1673ffffffffffffffffffffffffffffffffffffffff16815260200190815260200160002081905550816002600082825461105f9190611d93565b92505081905550600073ffffffffffffffffffffffffffffffffffffffff168373ffffffffffffffffffffffffffffffffffffffff167fddf252ad1be2c89b69c2b068fc378daa952ba7f163c4a11628f55a4df523b3ef846040516110c49190611420565b60405180910390a36110d883600084611242565b505050565b600073ffffffffffffffffffffffffffffffffffffffff168273ffffffffffffffffffffffffffffffffffffffff16141561114d576040517f08c379a000000000000000000000000000000000000000000000000000000000815260040161114490611e13565b60405180910390fd5b6111596000838361123d565b806002600082825461116b919061173b565b92505081905550806000808473ffffffffffffffffffffffffffffffffffffffff1673ffffffffffffffffffffffffffffffffffffffff16815260200190815260200160002060008282546111c0919061173b565b925050819055508173ffffffffffffffffffffffffffffffffffffffff16600073ffffffffffffffffffffffffffffffffffffffff167fddf252ad1be2c89b69c2b068fc378daa952ba7f163c4a11628f55a4df523b3ef836040516112259190611420565b60405180910390a361123960008383611242565b5050565b505050565b505050565b600081519050919050565b600082825260208201905092915050565b60005b83811015611281578082015181840152602081019050611266565b83811115611290576000848401525b50505050565b6000601f19601f8301169050919050565b60006112b282611247565b6112bc8185611252565b93506112cc818560208601611263565b6112d581611296565b840191505092915050565b600060208201905081810360008301526112fa81846112a7565b905092915050565b600080fd5b600073ffffffffffffffffffffffffffffffffffffffff82169050919050565b600061133282611307565b9050919050565b61134281611327565b811461134d57600080fd5b50565b60008135905061135f81611339565b92915050565b6000819050919050565b61137881611365565b811461138357600080fd5b50565b6000813590506113958161136f565b92915050565b600080604083850312156113b2576113b1611302565b5b60006113c085828601611350565b92505060206113d185828601611386565b9150509250929050565b60008115159050919050565b6113f0816113db565b82525050565b600060208201905061140b60008301846113e7565b92915050565b61141a81611365565b82525050565b60006020820190506114356000830184611411565b92915050565b60008060006060848603121561145457611453611302565b5b600061146286828701611350565b935050602061147386828701611350565b925050604061148486828701611386565b9150509250925092565b6000602082840312156114a4576114a3611302565b5b60006114b284828501611386565b91505092915050565b600060ff82169050919050565b6114d1816114bb565b82525050565b60006020820190506114ec60008301846114c8565b92915050565b60006020828403121561150857611507611302565b5b600061151684828501611350565b91505092915050565b6000806040838503121561153657611535611302565b5b600061154485828601611350565b925050602061155585828601611350565b9150509250929050565b7f4e487b7100000000000000000000000000000000000000000000000000000000600052602260045260246000fd5b600060028204905060018216806115a657607f821691505b602082108114156115ba576115b961155f565b5b50919050565b7f45524332303a207472616e7366657220616d6f756e742065786365656473206160008201527f6c6c6f77616e6365000000000000000000000000000000000000000000000000602082015250565b600061161c602883611252565b9150611627826115c0565b604082019050919050565b6000602082019050818103600083015261164b8161160f565b9050919050565b7f4e487b7100000000000000000000000000000000000000000000000000000000600052601160045260246000fd5b600061168c82611365565b915061169783611365565b9250817fffffffffffffffffffffffffffffffffffffffffffffffffffffffffffffffff04831182151516156116d0576116cf611652565b5b828202905092915050565b7f4e487b7100000000000000000000000000000000000000000000000000000000600052601260045260246000fd5b600061171582611365565b915061172083611365565b9250826117305761172f6116db565b5b828204905092915050565b600061174682611365565b915061175183611365565b9250827fffffffffffffffffffffffffffffffffffffffffffffffffffffffffffffffff0382111561178657611785611652565b5b828201905092915050565b600069ffffffffffffffffffff82169050919050565b6117b081611791565b81146117bb57600080fd5b50565b6000815190506117cd816117a7565b92915050565b6000819050919050565b6117e6816117d3565b81146117f157600080fd5b50565b600081519050611803816117dd565b92915050565b6000815190506118188161136f565b92915050565b600080600080600060a0868803121561183a57611839611302565b5b6000611848888289016117be565b9550506020611859888289016117f4565b945050604061186a88828901611809565b935050606061187b88828901611809565b925050608061188c888289016117be565b9150509295509295909350565b60006118a4826117d3565b91506118af836117d3565b9250826118bf576118be6116db565b5b600160000383147f8000000000000000000000000000000000000000000000000000000000000000831416156118f8576118f7611652565b5b828205905092915050565b7f45524332303a2064656372656173656420616c6c6f77616e63652062656c6f7760008201527f207a65726f000000000000000000000000000000000000000000000000000000602082015250565b600061195f602583611252565b915061196a82611903565b604082019050919050565b6000602082019050818103600083015261198e81611952565b9050919050565b7f45524332303a20617070726f76652066726f6d20746865207a65726f2061646460008201527f7265737300000000000000000000000000000000000000000000000000000000602082015250565b60006119f1602483611252565b91506119fc82611995565b604082019050919050565b60006020820190508181036000830152611a20816119e4565b9050919050565b7f45524332303a20617070726f766520746f20746865207a65726f20616464726560008201527f7373000000000000000000000000000000000000000000000000000000000000602082015250565b6000611a83602283611252565b9150611a8e82611a27565b604082019050919050565b60006020820190508181036000830152611ab281611a76565b9050919050565b7f45524332303a207472616e736665722066726f6d20746865207a65726f20616460008201527f6472657373000000000000000000000000000000000000000000000000000000602082015250565b6000611b15602583611252565b9150611b2082611ab9565b604082019050919050565b60006020820190508181036000830152611b4481611b08565b9050919050565b7f45524332303a207472616e7366657220746f20746865207a65726f206164647260008201527f6573730000000000000000000000000000000000000000000000000000000000602082015250565b6000611ba7602383611252565b9150611bb282611b4b565b604082019050919050565b60006020820190508181036000830152611bd681611b9a565b9050919050565b7f45524332303a207472616e7366657220616d6f756e742065786365656473206260008201527f616c616e63650000000000000000000000000000000000000000000000000000602082015250565b6000611c39602683611252565b9150611c4482611bdd565b604082019050919050565b60006020820190508181036000830152611c6881611c2c565b9050919050565b7f45524332303a206275726e2066726f6d20746865207a65726f2061646472657360008201527f7300000000000000000000000000000000000000000000000000000000000000602082015250565b6000611ccb602183611252565b9150611cd682611c6f565b604082019050919050565b60006020820190508181036000830152611cfa81611cbe565b9050919050565b7f45524332303a206275726e20616d6f756e7420657863656564732062616c616e60008201527f6365000000000000000000000000000000000000000000000000000000000000602082015250565b6000611d5d602283611252565b9150611d6882611d01565b604082019050919050565b60006020820190508181036000830152611d8c81611d50565b9050919050565b6000611d9e82611365565b9150611da983611365565b925082821015611dbc57611dbb611652565b5b828203905092915050565b7f45524332303a206d696e7420746f20746865207a65726f206164647265737300600082015250565b6000611dfd601f83611252565b9150611e0882611dc7565b602082019050919050565b60006020820190508181036000830152611e2c81611df0565b905091905056fea264697066735822122032265c2dfbd2d1a9bbd5dc3f32414bb1945c852edf27c9ab0c929305346792ae64736f6c634300080a0033",
  "immutableReferences": {},
  "source": "// SPDX-License-Identifier: MIT\npragma solidity ^0.8.0;\nimport \"@openzeppelin/contracts/token/ERC20/ERC20.sol\";\nimport \"@chainlink/contracts/src/v0.8/interfaces/AggregatorV3Interface.sol\";\n\n\ncontract HUSD is ERC20{\n\n\tAggregatorV3Interface internal priceFeed;\n\tuint public ethCollateralFactor = 7500;\n\n\n\n\tconstructor() ERC20(\"HussainUSD StableCoin \", \"HUSD\"){\n\t\tpriceFeed = AggregatorV3Interface(0x8A753747A1Fa494EC906cE90E9f37563A8AF630e);\n\t}\n\n\tfunction issue() \n\t\tpublic \n\t\tpayable{\n\n\t\t\tuint collateralValue = (msg.value * ethCollateralFactor);\n\t\t\tuint amount = (collateralValue * getLatestPrice()) / 1 ether;\n\n\t\t\t_mint(msg.sender, amount);\n\t}\n\n\t/**\n     * Returns the latest price\n     */\n    function getLatestPrice() public view returns (uint) {\n        (\n            uint80 roundID, \n            int price,\n            uint startedAt,\n            uint timeStamp,\n            uint80 answeredInRound\n        ) = priceFeed.latestRoundData();\n        return uint(price/10**8);\n    }\n\n\n    function withdraw(uint HUSDAmount) public returns (uint){\n\n\t    require(HUSDAmount <= balanceOf(msg.sender));\n\t    uint ethAmount = (HUSDAmount * 1 ether) / getLatestPrice();\n\n\t    if(address(this).balance <= ethAmount) {\n\t      ethAmount = (ethAmount * address(this).balance * getLatestPrice()) / (totalSupply() * 1 ether);\n\t    }\n\n\t    _burn(msg.sender, (HUSDAmount * 10**4));\n\t    payable(msg.sender).transfer(ethAmount);\n\t}\n}",
  "sourcePath": "/home/hussain/projects/myDefi-platform/contracts/StableCoins/HUSD.sol",
  "compiler": {
    "name": "solc",
    "version": "0.8.10+commit.fc410830.Emscripten.clang"
  },
  "schemaVersion": "3.4.3",
  "updatedAt": "2022-02-12T22:34:07.471Z",
  "devdoc": {
    "kind": "dev",
    "methods": {
      "allowance(address,address)": {
        "details": "See {IERC20-allowance}."
      },
      "approve(address,uint256)": {
        "details": "See {IERC20-approve}. Requirements: - `spender` cannot be the zero address."
      },
      "balanceOf(address)": {
        "details": "See {IERC20-balanceOf}."
      },
      "decimals()": {
        "details": "Returns the number of decimals used to get its user representation. For example, if `decimals` equals `2`, a balance of `505` tokens should be displayed to a user as `5.05` (`505 / 10 ** 2`). Tokens usually opt for a value of 18, imitating the relationship between Ether and Wei. This is the value {ERC20} uses, unless this function is overridden; NOTE: This information is only used for _display_ purposes: it in no way affects any of the arithmetic of the contract, including {IERC20-balanceOf} and {IERC20-transfer}."
      },
      "decreaseAllowance(address,uint256)": {
        "details": "Atomically decreases the allowance granted to `spender` by the caller. This is an alternative to {approve} that can be used as a mitigation for problems described in {IERC20-approve}. Emits an {Approval} event indicating the updated allowance. Requirements: - `spender` cannot be the zero address. - `spender` must have allowance for the caller of at least `subtractedValue`."
      },
      "increaseAllowance(address,uint256)": {
        "details": "Atomically increases the allowance granted to `spender` by the caller. This is an alternative to {approve} that can be used as a mitigation for problems described in {IERC20-approve}. Emits an {Approval} event indicating the updated allowance. Requirements: - `spender` cannot be the zero address."
      },
      "name()": {
        "details": "Returns the name of the token."
      },
      "symbol()": {
        "details": "Returns the symbol of the token, usually a shorter version of the name."
      },
      "totalSupply()": {
        "details": "See {IERC20-totalSupply}."
      },
      "transfer(address,uint256)": {
        "details": "See {IERC20-transfer}. Requirements: - `recipient` cannot be the zero address. - the caller must have a balance of at least `amount`."
      },
      "transferFrom(address,address,uint256)": {
        "details": "See {IERC20-transferFrom}. Emits an {Approval} event indicating the updated allowance. This is not required by the EIP. See the note at the beginning of {ERC20}. Requirements: - `sender` and `recipient` cannot be the zero address. - `sender` must have a balance of at least `amount`. - the caller must have allowance for ``sender``'s tokens of at least `amount`."
      }
    },
    "version": 1
  },
  "userdoc": {
    "kind": "user",
    "methods": {
      "getLatestPrice()": {
        "notice": "Returns the latest price"
      }
    },
    "version": 1
  }
}