{
  "contractName": "HUSD",
  "abi": [
    {
      "inputs": [],
      "stateMutability": "nonpayable",
      "type": "constructor"
    },
    {
      "anonymous": false,
      "inputs": [
        {
          "indexed": true,
          "internalType": "address",
          "name": "owner",
          "type": "address"
        },
        {
          "indexed": true,
          "internalType": "address",
          "name": "spender",
          "type": "address"
        },
        {
          "indexed": false,
          "internalType": "uint256",
          "name": "value",
          "type": "uint256"
        }
      ],
      "name": "Approval",
      "type": "event"
    },
    {
      "anonymous": false,
      "inputs": [
        {
          "indexed": true,
          "internalType": "address",
          "name": "from",
          "type": "address"
        },
        {
          "indexed": true,
          "internalType": "address",
          "name": "to",
          "type": "address"
        },
        {
          "indexed": false,
          "internalType": "uint256",
          "name": "value",
          "type": "uint256"
        }
      ],
      "name": "Transfer",
      "type": "event"
    },
    {
      "inputs": [
        {
          "internalType": "address",
          "name": "owner",
          "type": "address"
        },
        {
          "internalType": "address",
          "name": "spender",
          "type": "address"
        }
      ],
      "name": "allowance",
      "outputs": [
        {
          "internalType": "uint256",
          "name": "",
          "type": "uint256"
        }
      ],
      "stateMutability": "view",
      "type": "function"
    },
    {
      "inputs": [
        {
          "internalType": "address",
          "name": "spender",
          "type": "address"
        },
        {
          "internalType": "uint256",
          "name": "amount",
          "type": "uint256"
        }
      ],
      "name": "approve",
      "outputs": [
        {
          "internalType": "bool",
          "name": "",
          "type": "bool"
        }
      ],
      "stateMutability": "nonpayable",
      "type": "function"
    },
    {
      "inputs": [
        {
          "internalType": "address",
          "name": "account",
          "type": "address"
        }
      ],
      "name": "balanceOf",
      "outputs": [
        {
          "internalType": "uint256",
          "name": "",
          "type": "uint256"
        }
      ],
      "stateMutability": "view",
      "type": "function"
    },
    {
      "inputs": [],
      "name": "collateralized_ratio",
      "outputs": [
        {
          "internalType": "uint256",
          "name": "",
          "type": "uint256"
        }
      ],
      "stateMutability": "view",
      "type": "function"
    },
    {
      "inputs": [],
      "name": "decimals",
      "outputs": [
        {
          "internalType": "uint8",
          "name": "",
          "type": "uint8"
        }
      ],
      "stateMutability": "view",
      "type": "function"
    },
    {
      "inputs": [
        {
          "internalType": "address",
          "name": "spender",
          "type": "address"
        },
        {
          "internalType": "uint256",
          "name": "subtractedValue",
          "type": "uint256"
        }
      ],
      "name": "decreaseAllowance",
      "outputs": [
        {
          "internalType": "bool",
          "name": "",
          "type": "bool"
        }
      ],
      "stateMutability": "nonpayable",
      "type": "function"
    },
    {
      "inputs": [
        {
          "internalType": "address",
          "name": "spender",
          "type": "address"
        },
        {
          "internalType": "uint256",
          "name": "addedValue",
          "type": "uint256"
        }
      ],
      "name": "increaseAllowance",
      "outputs": [
        {
          "internalType": "bool",
          "name": "",
          "type": "bool"
        }
      ],
      "stateMutability": "nonpayable",
      "type": "function"
    },
    {
      "inputs": [],
      "name": "name",
      "outputs": [
        {
          "internalType": "string",
          "name": "",
          "type": "string"
        }
      ],
      "stateMutability": "view",
      "type": "function"
    },
    {
      "inputs": [],
      "name": "symbol",
      "outputs": [
        {
          "internalType": "string",
          "name": "",
          "type": "string"
        }
      ],
      "stateMutability": "view",
      "type": "function"
    },
    {
      "inputs": [],
      "name": "totalSupply",
      "outputs": [
        {
          "internalType": "uint256",
          "name": "",
          "type": "uint256"
        }
      ],
      "stateMutability": "view",
      "type": "function"
    },
    {
      "inputs": [
        {
          "internalType": "address",
          "name": "recipient",
          "type": "address"
        },
        {
          "internalType": "uint256",
          "name": "amount",
          "type": "uint256"
        }
      ],
      "name": "transfer",
      "outputs": [
        {
          "internalType": "bool",
          "name": "",
          "type": "bool"
        }
      ],
      "stateMutability": "nonpayable",
      "type": "function"
    },
    {
      "inputs": [
        {
          "internalType": "address",
          "name": "sender",
          "type": "address"
        },
        {
          "internalType": "address",
          "name": "recipient",
          "type": "address"
        },
        {
          "internalType": "uint256",
          "name": "amount",
          "type": "uint256"
        }
      ],
      "name": "transferFrom",
      "outputs": [
        {
          "internalType": "bool",
          "name": "",
          "type": "bool"
        }
      ],
      "stateMutability": "nonpayable",
      "type": "function"
    },
    {
      "inputs": [],
      "name": "issue",
      "outputs": [],
      "stateMutability": "payable",
      "type": "function"
    },
    {
      "inputs": [],
      "name": "getLatestPrice",
      "outputs": [
        {
          "internalType": "uint256",
          "name": "",
          "type": "uint256"
        }
      ],
      "stateMutability": "view",
      "type": "function"
    }
  ],
  "bytecode": "0x6080604052612af86006553480156200001757600080fd5b506040518060400160405280601681526020017f4875737361696e55534420537461626c65436f696e20000000000000000000008152506040518060400160405280600481526020017f485553440000000000000000000000000000000000000000000000000000000081525081600390805190602001906200009c92919062000113565b508060049080519060200190620000b592919062000113565b505050738a753747a1fa494ec906ce90e9f37563a8af630e600560006101000a81548173ffffffffffffffffffffffffffffffffffffffff021916908373ffffffffffffffffffffffffffffffffffffffff16021790555062000228565b8280546200012190620001f2565b90600052602060002090601f01602090048101928262000145576000855562000191565b82601f106200016057805160ff191683800117855562000191565b8280016001018555821562000191579182015b828111156200019057825182559160200191906001019062000173565b5b509050620001a09190620001a4565b5090565b5b80821115620001bf576000816000905550600101620001a5565b5090565b7f4e487b7100000000000000000000000000000000000000000000000000000000600052602260045260246000fd5b600060028204905060018216806200020b57607f821691505b60208210811415620002225762000221620001c3565b5b50919050565b6118e780620002386000396000f3fe6080604052600436106100dd5760003560e01c80638e15f4731161007f578063a9059cbb11610059578063a9059cbb146102ea578063d383f64614610327578063dd62ed3e14610331578063ec121f381461036e576100dd565b80638e15f4731461025757806395d89b4114610282578063a457c2d7146102ad576100dd565b806323b872dd116100bb57806323b872dd14610175578063313ce567146101b257806339509351146101dd57806370a082311461021a576100dd565b806306fdde03146100e2578063095ea7b31461010d57806318160ddd1461014a575b600080fd5b3480156100ee57600080fd5b506100f7610399565b6040516101049190610fad565b60405180910390f35b34801561011957600080fd5b50610134600480360381019061012f9190611068565b61042b565b60405161014191906110c3565b60405180910390f35b34801561015657600080fd5b5061015f610449565b60405161016c91906110ed565b60405180910390f35b34801561018157600080fd5b5061019c60048036038101906101979190611108565b610453565b6040516101a991906110c3565b60405180910390f35b3480156101be57600080fd5b506101c761054b565b6040516101d49190611177565b60405180910390f35b3480156101e957600080fd5b5061020460048036038101906101ff9190611068565b610554565b60405161021191906110c3565b60405180910390f35b34801561022657600080fd5b50610241600480360381019061023c9190611192565b610600565b60405161024e91906110ed565b60405180910390f35b34801561026357600080fd5b5061026c610648565b60405161027991906110ed565b60405180910390f35b34801561028e57600080fd5b506102976106f7565b6040516102a49190610fad565b60405180910390f35b3480156102b957600080fd5b506102d460048036038101906102cf9190611068565b610789565b6040516102e191906110c3565b60405180910390f35b3480156102f657600080fd5b50610311600480360381019061030c9190611068565b610874565b60405161031e91906110c3565b60405180910390f35b61032f610892565b005b34801561033d57600080fd5b50610358600480360381019061035391906111bf565b6108c9565b60405161036591906110ed565b60405180910390f35b34801561037a57600080fd5b50610383610950565b60405161039091906110ed565b60405180910390f35b6060600380546103a89061122e565b80601f01602080910402602001604051908101604052809291908181526020018280546103d49061122e565b80156104215780601f106103f657610100808354040283529160200191610421565b820191906000526020600020905b81548152906001019060200180831161040457829003601f168201915b5050505050905090565b600061043f610438610956565b848461095e565b6001905092915050565b6000600254905090565b6000610460848484610b29565b6000600160008673ffffffffffffffffffffffffffffffffffffffff1673ffffffffffffffffffffffffffffffffffffffff16815260200190815260200160002060006104ab610956565b73ffffffffffffffffffffffffffffffffffffffff1673ffffffffffffffffffffffffffffffffffffffff1681526020019081526020016000205490508281101561052b576040517f08c379a0000000000000000000000000000000000000000000000000000000008152600401610522906112d2565b60405180910390fd5b61053f85610537610956565b85840361095e565b60019150509392505050565b60006012905090565b60006105f6610561610956565b84846001600061056f610956565b73ffffffffffffffffffffffffffffffffffffffff1673ffffffffffffffffffffffffffffffffffffffff16815260200190815260200160002060008873ffffffffffffffffffffffffffffffffffffffff1673ffffffffffffffffffffffffffffffffffffffff168152602001908152602001600020546105f19190611321565b61095e565b6001905092915050565b60008060008373ffffffffffffffffffffffffffffffffffffffff1673ffffffffffffffffffffffffffffffffffffffff168152602001908152602001600020549050919050565b600080600080600080600560009054906101000a900473ffffffffffffffffffffffffffffffffffffffff1673ffffffffffffffffffffffffffffffffffffffff1663feaf968c6040518163ffffffff1660e01b815260040160a060405180830381865afa1580156106be573d6000803e3d6000fd5b505050506040513d601f19601f820116820180604052508101906106e29190611404565b94509450945094509450839550505050505090565b6060600480546107069061122e565b80601f01602080910402602001604051908101604052809291908181526020018280546107329061122e565b801561077f5780601f106107545761010080835404028352916020019161077f565b820191906000526020600020905b81548152906001019060200180831161076257829003601f168201915b5050505050905090565b60008060016000610798610956565b73ffffffffffffffffffffffffffffffffffffffff1673ffffffffffffffffffffffffffffffffffffffff16815260200190815260200160002060008573ffffffffffffffffffffffffffffffffffffffff1673ffffffffffffffffffffffffffffffffffffffff16815260200190815260200160002054905082811015610855576040517f08c379a000000000000000000000000000000000000000000000000000000000815260040161084c906114f1565b60405180910390fd5b610869610860610956565b8585840361095e565b600191505092915050565b6000610888610881610956565b8484610b29565b6001905092915050565b600061089c610648565b346108a79190611511565b90506108c633670de0b6b3a7640000836108c19190611511565b610daa565b50565b6000600160008473ffffffffffffffffffffffffffffffffffffffff1673ffffffffffffffffffffffffffffffffffffffff16815260200190815260200160002060008373ffffffffffffffffffffffffffffffffffffffff1673ffffffffffffffffffffffffffffffffffffffff16815260200190815260200160002054905092915050565b60065481565b600033905090565b600073ffffffffffffffffffffffffffffffffffffffff168373ffffffffffffffffffffffffffffffffffffffff1614156109ce576040517f08c379a00000000000000000000000000000000000000000000000000000000081526004016109c5906115dd565b60405180910390fd5b600073ffffffffffffffffffffffffffffffffffffffff168273ffffffffffffffffffffffffffffffffffffffff161415610a3e576040517f08c379a0000000000000000000000000000000000000000000000000000000008152600401610a359061166f565b60405180910390fd5b80600160008573ffffffffffffffffffffffffffffffffffffffff1673ffffffffffffffffffffffffffffffffffffffff16815260200190815260200160002060008473ffffffffffffffffffffffffffffffffffffffff1673ffffffffffffffffffffffffffffffffffffffff168152602001908152602001600020819055508173ffffffffffffffffffffffffffffffffffffffff168373ffffffffffffffffffffffffffffffffffffffff167f8c5be1e5ebec7d5bd14f71427d1e84f3dd0314c0f7b2291e5b200ac8c7c3b92583604051610b1c91906110ed565b60405180910390a3505050565b600073ffffffffffffffffffffffffffffffffffffffff168373ffffffffffffffffffffffffffffffffffffffff161415610b99576040517f08c379a0000000000000000000000000000000000000000000000000000000008152600401610b9090611701565b60405180910390fd5b600073ffffffffffffffffffffffffffffffffffffffff168273ffffffffffffffffffffffffffffffffffffffff161415610c09576040517f08c379a0000000000000000000000000000000000000000000000000000000008152600401610c0090611793565b60405180910390fd5b610c14838383610f0a565b60008060008573ffffffffffffffffffffffffffffffffffffffff1673ffffffffffffffffffffffffffffffffffffffff16815260200190815260200160002054905081811015610c9a576040517f08c379a0000000000000000000000000000000000000000000000000000000008152600401610c9190611825565b60405180910390fd5b8181036000808673ffffffffffffffffffffffffffffffffffffffff1673ffffffffffffffffffffffffffffffffffffffff16815260200190815260200160002081905550816000808573ffffffffffffffffffffffffffffffffffffffff1673ffffffffffffffffffffffffffffffffffffffff1681526020019081526020016000206000828254610d2d9190611321565b925050819055508273ffffffffffffffffffffffffffffffffffffffff168473ffffffffffffffffffffffffffffffffffffffff167fddf252ad1be2c89b69c2b068fc378daa952ba7f163c4a11628f55a4df523b3ef84604051610d9191906110ed565b60405180910390a3610da4848484610f0f565b50505050565b600073ffffffffffffffffffffffffffffffffffffffff168273ffffffffffffffffffffffffffffffffffffffff161415610e1a576040517f08c379a0000000000000000000000000000000000000000000000000000000008152600401610e1190611891565b60405180910390fd5b610e2660008383610f0a565b8060026000828254610e389190611321565b92505081905550806000808473ffffffffffffffffffffffffffffffffffffffff1673ffffffffffffffffffffffffffffffffffffffff1681526020019081526020016000206000828254610e8d9190611321565b925050819055508173ffffffffffffffffffffffffffffffffffffffff16600073ffffffffffffffffffffffffffffffffffffffff167fddf252ad1be2c89b69c2b068fc378daa952ba7f163c4a11628f55a4df523b3ef83604051610ef291906110ed565b60405180910390a3610f0660008383610f0f565b5050565b505050565b505050565b600081519050919050565b600082825260208201905092915050565b60005b83811015610f4e578082015181840152602081019050610f33565b83811115610f5d576000848401525b50505050565b6000601f19601f8301169050919050565b6000610f7f82610f14565b610f898185610f1f565b9350610f99818560208601610f30565b610fa281610f63565b840191505092915050565b60006020820190508181036000830152610fc78184610f74565b905092915050565b600080fd5b600073ffffffffffffffffffffffffffffffffffffffff82169050919050565b6000610fff82610fd4565b9050919050565b61100f81610ff4565b811461101a57600080fd5b50565b60008135905061102c81611006565b92915050565b6000819050919050565b61104581611032565b811461105057600080fd5b50565b6000813590506110628161103c565b92915050565b6000806040838503121561107f5761107e610fcf565b5b600061108d8582860161101d565b925050602061109e85828601611053565b9150509250929050565b60008115159050919050565b6110bd816110a8565b82525050565b60006020820190506110d860008301846110b4565b92915050565b6110e781611032565b82525050565b600060208201905061110260008301846110de565b92915050565b60008060006060848603121561112157611120610fcf565b5b600061112f8682870161101d565b93505060206111408682870161101d565b925050604061115186828701611053565b9150509250925092565b600060ff82169050919050565b6111718161115b565b82525050565b600060208201905061118c6000830184611168565b92915050565b6000602082840312156111a8576111a7610fcf565b5b60006111b68482850161101d565b91505092915050565b600080604083850312156111d6576111d5610fcf565b5b60006111e48582860161101d565b92505060206111f58582860161101d565b9150509250929050565b7f4e487b7100000000000000000000000000000000000000000000000000000000600052602260045260246000fd5b6000600282049050600182168061124657607f821691505b6020821081141561125a576112596111ff565b5b50919050565b7f45524332303a207472616e7366657220616d6f756e742065786365656473206160008201527f6c6c6f77616e6365000000000000000000000000000000000000000000000000602082015250565b60006112bc602883610f1f565b91506112c782611260565b604082019050919050565b600060208201905081810360008301526112eb816112af565b9050919050565b7f4e487b7100000000000000000000000000000000000000000000000000000000600052601160045260246000fd5b600061132c82611032565b915061133783611032565b9250827fffffffffffffffffffffffffffffffffffffffffffffffffffffffffffffffff0382111561136c5761136b6112f2565b5b828201905092915050565b600069ffffffffffffffffffff82169050919050565b61139681611377565b81146113a157600080fd5b50565b6000815190506113b38161138d565b92915050565b6000819050919050565b6113cc816113b9565b81146113d757600080fd5b50565b6000815190506113e9816113c3565b92915050565b6000815190506113fe8161103c565b92915050565b600080600080600060a086880312156114205761141f610fcf565b5b600061142e888289016113a4565b955050602061143f888289016113da565b9450506040611450888289016113ef565b9350506060611461888289016113ef565b9250506080611472888289016113a4565b9150509295509295909350565b7f45524332303a2064656372656173656420616c6c6f77616e63652062656c6f7760008201527f207a65726f000000000000000000000000000000000000000000000000000000602082015250565b60006114db602583610f1f565b91506114e68261147f565b604082019050919050565b6000602082019050818103600083015261150a816114ce565b9050919050565b600061151c82611032565b915061152783611032565b9250817fffffffffffffffffffffffffffffffffffffffffffffffffffffffffffffffff04831182151516156115605761155f6112f2565b5b828202905092915050565b7f45524332303a20617070726f76652066726f6d20746865207a65726f2061646460008201527f7265737300000000000000000000000000000000000000000000000000000000602082015250565b60006115c7602483610f1f565b91506115d28261156b565b604082019050919050565b600060208201905081810360008301526115f6816115ba565b9050919050565b7f45524332303a20617070726f766520746f20746865207a65726f20616464726560008201527f7373000000000000000000000000000000000000000000000000000000000000602082015250565b6000611659602283610f1f565b9150611664826115fd565b604082019050919050565b600060208201905081810360008301526116888161164c565b9050919050565b7f45524332303a207472616e736665722066726f6d20746865207a65726f20616460008201527f6472657373000000000000000000000000000000000000000000000000000000602082015250565b60006116eb602583610f1f565b91506116f68261168f565b604082019050919050565b6000602082019050818103600083015261171a816116de565b9050919050565b7f45524332303a207472616e7366657220746f20746865207a65726f206164647260008201527f6573730000000000000000000000000000000000000000000000000000000000602082015250565b600061177d602383610f1f565b915061178882611721565b604082019050919050565b600060208201905081810360008301526117ac81611770565b9050919050565b7f45524332303a207472616e7366657220616d6f756e742065786365656473206260008201527f616c616e63650000000000000000000000000000000000000000000000000000602082015250565b600061180f602683610f1f565b915061181a826117b3565b604082019050919050565b6000602082019050818103600083015261183e81611802565b9050919050565b7f45524332303a206d696e7420746f20746865207a65726f206164647265737300600082015250565b600061187b601f83610f1f565b915061188682611845565b602082019050919050565b600060208201905081810360008301526118aa8161186e565b905091905056fea26469706673582212205fc942b084fefff57e47b25e7846861e45ada834eba04bf8f0b979bf1c8f239064736f6c634300080a0033",
  "immutableReferences": {},
  "source": "// SPDX-License-Identifier: MIT\npragma solidity ^0.8.0;\nimport \"@openzeppelin/contracts/token/ERC20/ERC20.sol\";\nimport \"@chainlink/contracts/src/v0.8/interfaces/AggregatorV3Interface.sol\";\n\n\ncontract HUSD is ERC20{\n\n\tAggregatorV3Interface internal priceFeed;\n\tuint public collateralized_ratio = 11000;\n\n\n\n\tconstructor() ERC20(\"HussainUSD StableCoin \", \"HUSD\"){\n\t\tpriceFeed = AggregatorV3Interface(0x8A753747A1Fa494EC906cE90E9f37563A8AF630e);\n\t}\n\n\tfunction issue() \n\t\tpublic \n\t\tpayable{\n\t\t\tuint amount = (msg.value * getLatestPrice());\n\n\t\t\t_mint(msg.sender, amount * 10**18);\n\t}\n\n\t/**\n     * Returns the latest price\n     */\n    function getLatestPrice() public view returns (uint) {\n        (\n            uint80 roundID, \n            int price,\n            uint startedAt,\n            uint timeStamp,\n            uint80 answeredInRound\n        ) = priceFeed.latestRoundData();\n        return uint(price);\n    }\n}",
  "sourcePath": "/home/hussain/projects/myDefi-platform/contracts/StableCoins/HUSD.sol",
  "compiler": {
    "name": "solc",
    "version": "0.8.10+commit.fc410830.Emscripten.clang"
  },
  "schemaVersion": "3.4.3",
  "updatedAt": "2022-02-09T20:19:34.677Z",
  "devdoc": {
    "kind": "dev",
    "methods": {
      "allowance(address,address)": {
        "details": "See {IERC20-allowance}."
      },
      "approve(address,uint256)": {
        "details": "See {IERC20-approve}. Requirements: - `spender` cannot be the zero address."
      },
      "balanceOf(address)": {
        "details": "See {IERC20-balanceOf}."
      },
      "decimals()": {
        "details": "Returns the number of decimals used to get its user representation. For example, if `decimals` equals `2`, a balance of `505` tokens should be displayed to a user as `5.05` (`505 / 10 ** 2`). Tokens usually opt for a value of 18, imitating the relationship between Ether and Wei. This is the value {ERC20} uses, unless this function is overridden; NOTE: This information is only used for _display_ purposes: it in no way affects any of the arithmetic of the contract, including {IERC20-balanceOf} and {IERC20-transfer}."
      },
      "decreaseAllowance(address,uint256)": {
        "details": "Atomically decreases the allowance granted to `spender` by the caller. This is an alternative to {approve} that can be used as a mitigation for problems described in {IERC20-approve}. Emits an {Approval} event indicating the updated allowance. Requirements: - `spender` cannot be the zero address. - `spender` must have allowance for the caller of at least `subtractedValue`."
      },
      "increaseAllowance(address,uint256)": {
        "details": "Atomically increases the allowance granted to `spender` by the caller. This is an alternative to {approve} that can be used as a mitigation for problems described in {IERC20-approve}. Emits an {Approval} event indicating the updated allowance. Requirements: - `spender` cannot be the zero address."
      },
      "name()": {
        "details": "Returns the name of the token."
      },
      "symbol()": {
        "details": "Returns the symbol of the token, usually a shorter version of the name."
      },
      "totalSupply()": {
        "details": "See {IERC20-totalSupply}."
      },
      "transfer(address,uint256)": {
        "details": "See {IERC20-transfer}. Requirements: - `recipient` cannot be the zero address. - the caller must have a balance of at least `amount`."
      },
      "transferFrom(address,address,uint256)": {
        "details": "See {IERC20-transferFrom}. Emits an {Approval} event indicating the updated allowance. This is not required by the EIP. See the note at the beginning of {ERC20}. Requirements: - `sender` and `recipient` cannot be the zero address. - `sender` must have a balance of at least `amount`. - the caller must have allowance for ``sender``'s tokens of at least `amount`."
      }
    },
    "version": 1
  },
  "userdoc": {
    "kind": "user",
    "methods": {
      "getLatestPrice()": {
        "notice": "Returns the latest price"
      }
    },
    "version": 1
  }
}